{
  "_format": "hh-sol-artifact-1",
  "contractName": "CardTransactionRegistry",
  "sourceName": "contracts/CardTransactionRegistry.sol",
  "abi": [
    {
      "inputs": [],
      "name": "getAllTransactions",
      "outputs": [
        {
          "internalType": "string[]",
          "name": "cardIds",
          "type": "string[]"
        },
        {
          "internalType": "string[]",
          "name": "receiverAddressesW",
          "type": "string[]"
        },
        {
          "internalType": "string[]",
          "name": "receiverAddressesR",
          "type": "string[]"
        },
        {
          "internalType": "string[]",
          "name": "dates",
          "type": "string[]"
        },
        {
          "internalType": "string[]",
          "name": "receiverAddressM",
          "type": "string[]"
        },
        {
          "internalType": "string[]",
          "name": "statuses",
          "type": "string[]"
        }
      ],
      "stateMutability": "view",
      "type": "function"
    },
    {
      "inputs": [
        {
          "internalType": "string",
          "name": "_cardId",
          "type": "string"
        },
        {
          "internalType": "string",
          "name": "_receiverAddressW",
          "type": "string"
        },
        {
          "internalType": "string",
          "name": "_receiverAddressR",
          "type": "string"
        },
        {
          "internalType": "string",
          "name": "_date",
          "type": "string"
        },
        {
          "internalType": "string",
          "name": "_receiverAddressM",
          "type": "string"
        }
      ],
      "name": "registerCardTransaction",
      "outputs": [],
      "stateMutability": "nonpayable",
      "type": "function"
    },
    {
      "inputs": [
        {
          "internalType": "string",
          "name": "_cardId",
          "type": "string"
        },
        {
          "internalType": "string",
          "name": "_date",
          "type": "string"
        },
        {
          "internalType": "string",
          "name": "_receiverAddressW",
          "type": "string"
        },
        {
          "internalType": "string",
          "name": "_receiverAddressR",
          "type": "string"
        }
      ],
      "name": "searchCardTransactionR",
      "outputs": [],
      "stateMutability": "nonpayable",
      "type": "function"
    },
    {
      "inputs": [
        {
          "internalType": "string",
          "name": "_cardId",
          "type": "string"
        },
        {
          "internalType": "string",
          "name": "_date",
          "type": "string"
        },
        {
          "internalType": "string",
          "name": "_receiverAddressW",
          "type": "string"
        },
        {
          "internalType": "string",
          "name": "_receiverAddressR",
          "type": "string"
        }
      ],
      "name": "searchCardTransactionW",
      "outputs": [],
      "stateMutability": "nonpayable",
      "type": "function"
    },
    {
      "inputs": [
        {
          "internalType": "string",
          "name": "_cardId",
          "type": "string"
        },
        {
          "internalType": "string",
          "name": "_date",
          "type": "string"
        },
        {
          "internalType": "string",
          "name": "_receiverAddressW",
          "type": "string"
        },
        {
          "internalType": "string",
          "name": "_receiverAddressR",
          "type": "string"
        }
      ],
      "name": "searchCardTransactionWR",
      "outputs": [],
      "stateMutability": "nonpayable",
      "type": "function"
    }
  ],
  "bytecode": "0x608060405234801561001057600080fd5b50612439806100206000396000f3fe608060405234801561001057600080fd5b50600436106100575760003560e01c806327506f531461005c57806329ae9fcd1461007f5780636d3bb5531461009b578063c3d72e8b146100b7578063f30aa3ef146100d3575b600080fd5b6100646100ef565b6040516100769695949392919061202c565b60405180910390f35b61009960048036038101906100949190611a1c565b6109b5565b005b6100b560048036038101906100b09190611adf565b610d15565b005b6100d160048036038101906100cc9190611a1c565b610f3b565b005b6100ed60048036038101906100e89190611a1c565b61129a565b005b6060806060806060806000600180549050905060008167ffffffffffffffff811115610144577f4e487b7100000000000000000000000000000000000000000000000000000000600052604160045260246000fd5b60405190808252806020026020018201604052801561017757816020015b60608152602001906001900390816101625790505b50905060008267ffffffffffffffff8111156101bc577f4e487b7100000000000000000000000000000000000000000000000000000000600052604160045260246000fd5b6040519080825280602002602001820160405280156101ef57816020015b60608152602001906001900390816101da5790505b50905060008367ffffffffffffffff811115610234577f4e487b7100000000000000000000000000000000000000000000000000000000600052604160045260246000fd5b60405190808252806020026020018201604052801561026757816020015b60608152602001906001900390816102525790505b50905060008467ffffffffffffffff8111156102ac577f4e487b7100000000000000000000000000000000000000000000000000000000600052604160045260246000fd5b6040519080825280602002602001820160405280156102df57816020015b60608152602001906001900390816102ca5790505b50905060008567ffffffffffffffff811115610324577f4e487b7100000000000000000000000000000000000000000000000000000000600052604160045260246000fd5b60405190808252806020026020018201604052801561035757816020015b60608152602001906001900390816103425790505b50905060008667ffffffffffffffff81111561039c577f4e487b7100000000000000000000000000000000000000000000000000000000600052604160045260246000fd5b6040519080825280602002602001820160405280156103cf57816020015b60608152602001906001900390816103ba5790505b50905060005b8781101561099357600060018281548110610419577f4e487b7100000000000000000000000000000000000000000000000000000000600052603260045260246000fd5b90600052602060002001805461042e906122ea565b80601f016020809104026020016040519081016040528092919081815260200182805461045a906122ea565b80156104a75780601f1061047c576101008083540402835291602001916104a7565b820191906000526020600020905b81548152906001019060200180831161048a57829003601f168201915b50505050509050600080826040516104bf9190611ffe565b90815260200160405180910390206040518060c00160405290816000820180546104e8906122ea565b80601f0160208091040260200160405190810160405280929190818152602001828054610514906122ea565b80156105615780601f1061053657610100808354040283529160200191610561565b820191906000526020600020905b81548152906001019060200180831161054457829003601f168201915b5050505050815260200160018201805461057a906122ea565b80601f01602080910402602001604051908101604052809291908181526020018280546105a6906122ea565b80156105f35780601f106105c8576101008083540402835291602001916105f3565b820191906000526020600020905b8154815290600101906020018083116105d657829003601f168201915b5050505050815260200160028201805461060c906122ea565b80601f0160208091040260200160405190810160405280929190818152602001828054610638906122ea565b80156106855780601f1061065a57610100808354040283529160200191610685565b820191906000526020600020905b81548152906001019060200180831161066857829003601f168201915b5050505050815260200160038201805461069e906122ea565b80601f01602080910402602001604051908101604052809291908181526020018280546106ca906122ea565b80156107175780601f106106ec57610100808354040283529160200191610717565b820191906000526020600020905b8154815290600101906020018083116106fa57829003601f168201915b505050505081526020016004820160009054906101000a900460ff16600381111561076b577f4e487b7100000000000000000000000000000000000000000000000000000000600052602160045260246000fd5b60038111156107a3577f4e487b7100000000000000000000000000000000000000000000000000000000600052602160045260246000fd5b81526020016004820160019054906101000a900460ff1615151515815250509050818984815181106107fe577f4e487b7100000000000000000000000000000000000000000000000000000000600052603260045260246000fd5b60200260200101819052508060000151888481518110610847577f4e487b7100000000000000000000000000000000000000000000000000000000600052603260045260246000fd5b60200260200101819052508060200151878481518110610890577f4e487b7100000000000000000000000000000000000000000000000000000000600052603260045260246000fd5b602002602001018190525080604001518684815181106108d9577f4e487b7100000000000000000000000000000000000000000000000000000000600052603260045260246000fd5b60200260200101819052508060600151858481518110610922577f4e487b7100000000000000000000000000000000000000000000000000000000600052603260045260246000fd5b602002602001018190525061093a81608001516115fa565b848481518110610973577f4e487b7100000000000000000000000000000000000000000000000000000000600052603260045260246000fd5b60200260200101819052505050808061098b9061231c565b9150506103d5565b508585858585859c509c509c509c509c509c5050505050505050909192939495565b6000846040516109c59190611ffe565b908152602001604051809103902060040160019054906101000a900460ff16610a23576040517f08c379a0000000000000000000000000000000000000000000000000000000008152600401610a1a90612157565b60405180910390fd5b60008085604051610a349190611ffe565b9081526020016040518091039020905060006003811115610a7e577f4e487b7100000000000000000000000000000000000000000000000000000000600052602160045260246000fd5b8160040160009054906101000a900460ff166003811115610ac8577f4e487b7100000000000000000000000000000000000000000000000000000000600052602160045260246000fd5b14610b08576040517f08c379a0000000000000000000000000000000000000000000000000000000008152600401610aff906120f7565b60405180910390fd5b83604051602001610b199190611ffe565b6040516020818303038152906040528051906020012081600201604051602001610b439190612015565b6040516020818303038152906040528051906020012014610b99576040517f08c379a0000000000000000000000000000000000000000000000000000000008152600401610b9090612197565b60405180910390fd5b82604051602001610baa9190611ffe565b6040516020818303038152906040528051906020012081600001604051602001610bd49190612015565b6040516020818303038152906040528051906020012014610c2a576040517f08c379a0000000000000000000000000000000000000000000000000000000008152600401610c21906120b7565b60405180910390fd5b81604051602001610c3b9190611ffe565b6040516020818303038152906040528051906020012081600101604051602001610c659190612015565b6040516020818303038152906040528051906020012014610cbb576040517f08c379a0000000000000000000000000000000000000000000000000000000008152600401610cb290612137565b60405180910390fd5b60038160040160006101000a81548160ff02191690836003811115610d09577f4e487b7100000000000000000000000000000000000000000000000000000000600052602160045260246000fd5b02179055505050505050565b600085604051610d259190611ffe565b908152602001604051809103902060040160019054906101000a900460ff1615610d84576040517f08c379a0000000000000000000000000000000000000000000000000000000008152600401610d7b90612177565b60405180910390fd5b6040518060c0016040528085815260200184815260200183815260200182815260200160006003811115610de1577f4e487b7100000000000000000000000000000000000000000000000000000000600052602160045260246000fd5b815260200160011515815250600086604051610dfd9190611ffe565b90815260200160405180910390206000820151816000019080519060200190610e27929190611911565b506020820151816001019080519060200190610e44929190611911565b506040820151816002019080519060200190610e61929190611911565b506060820151816003019080519060200190610e7e929190611911565b5060808201518160040160006101000a81548160ff02191690836003811115610ed0577f4e487b7100000000000000000000000000000000000000000000000000000000600052602160045260246000fd5b021790555060a08201518160040160016101000a81548160ff021916908315150217905550905050600185908060018154018082558091505060019003906000526020600020016000909190919091509080519060200190610f33929190611911565b505050505050565b600084604051610f4b9190611ffe565b908152602001604051809103902060040160019054906101000a900460ff16610fa9576040517f08c379a0000000000000000000000000000000000000000000000000000000008152600401610fa090612157565b60405180910390fd5b60008085604051610fba9190611ffe565b90815260200160405180910390209050600380811115611003577f4e487b7100000000000000000000000000000000000000000000000000000000600052602160045260246000fd5b8160040160009054906101000a900460ff16600381111561104d577f4e487b7100000000000000000000000000000000000000000000000000000000600052602160045260246000fd5b1461108d576040517f08c379a000000000000000000000000000000000000000000000000000000000815260040161108490612117565b60405180910390fd5b8360405160200161109e9190611ffe565b60405160208183030381529060405280519060200120816002016040516020016110c89190612015565b604051602081830303815290604052805190602001201461111e576040517f08c379a000000000000000000000000000000000000000000000000000000000815260040161111590612197565b60405180910390fd5b8260405160200161112f9190611ffe565b60405160208183030381529060405280519060200120816000016040516020016111599190612015565b60405160208183030381529060405280519060200120146111af576040517f08c379a00000000000000000000000000000000000000000000000000000000081526004016111a6906120b7565b60405180910390fd5b816040516020016111c09190611ffe565b60405160208183030381529060405280519060200120816001016040516020016111ea9190612015565b6040516020818303038152906040528051906020012014611240576040517f08c379a000000000000000000000000000000000000000000000000000000000815260040161123790612137565b60405180910390fd5b60018160040160006101000a81548160ff0219169083600381111561128e577f4e487b7100000000000000000000000000000000000000000000000000000000600052602160045260246000fd5b02179055505050505050565b6000846040516112aa9190611ffe565b908152602001604051809103902060040160019054906101000a900460ff16611308576040517f08c379a00000000000000000000000000000000000000000000000000000000081526004016112ff90612157565b60405180910390fd5b600080856040516113199190611ffe565b9081526020016040518091039020905060016003811115611363577f4e487b7100000000000000000000000000000000000000000000000000000000600052602160045260246000fd5b8160040160009054906101000a900460ff1660038111156113ad577f4e487b7100000000000000000000000000000000000000000000000000000000600052602160045260246000fd5b146113ed576040517f08c379a00000000000000000000000000000000000000000000000000000000081526004016113e4906120d7565b60405180910390fd5b836040516020016113fe9190611ffe565b60405160208183030381529060405280519060200120816002016040516020016114289190612015565b604051602081830303815290604052805190602001201461147e576040517f08c379a000000000000000000000000000000000000000000000000000000000815260040161147590612197565b60405180910390fd5b8260405160200161148f9190611ffe565b60405160208183030381529060405280519060200120816000016040516020016114b99190612015565b604051602081830303815290604052805190602001201461150f576040517f08c379a0000000000000000000000000000000000000000000000000000000008152600401611506906120b7565b60405180910390fd5b816040516020016115209190611ffe565b604051602081830303815290604052805190602001208160010160405160200161154a9190612015565b60405160208183030381529060405280519060200120146115a0576040517f08c379a000000000000000000000000000000000000000000000000000000000815260040161159790612137565b60405180910390fd5b60028160040160006101000a81548160ff021916908360038111156115ee577f4e487b7100000000000000000000000000000000000000000000000000000000600052602160045260246000fd5b02179055505050505050565b606060006003811115611636577f4e487b7100000000000000000000000000000000000000000000000000000000600052602160045260246000fd5b82600381111561166f577f4e487b7100000000000000000000000000000000000000000000000000000000600052602160045260246000fd5b14156116b2576040518060400160405280601581526020017f494e5f5452414e5349545f57484f4c4553414c45520000000000000000000000815250905061190c565b600160038111156116ec577f4e487b7100000000000000000000000000000000000000000000000000000000600052602160045260246000fd5b826003811115611725577f4e487b7100000000000000000000000000000000000000000000000000000000600052602160045260246000fd5b1415611768576040518060400160405280601381526020017f494e5f5452414e5349545f52455441494c455200000000000000000000000000815250905061190c565b600260038111156117a2577f4e487b7100000000000000000000000000000000000000000000000000000000600052602160045260246000fd5b8260038111156117db577f4e487b7100000000000000000000000000000000000000000000000000000000600052602160045260246000fd5b141561181e576040518060400160405280600981526020017f44454c4956455245440000000000000000000000000000000000000000000000815250905061190c565b600380811115611857577f4e487b7100000000000000000000000000000000000000000000000000000000600052602160045260246000fd5b826003811115611890577f4e487b7100000000000000000000000000000000000000000000000000000000600052602160045260246000fd5b14156118d3576040518060400160405280601381526020017f57484f4c4553414c45525f524543454956454400000000000000000000000000815250905061190c565b6040518060400160405280600e81526020017f696e76616c69645f73746174757300000000000000000000000000000000000081525090505b919050565b82805461191d906122ea565b90600052602060002090601f01602090048101928261193f5760008555611986565b82601f1061195857805160ff1916838001178555611986565b82800160010185558215611986579182015b8281111561198557825182559160200191906001019061196a565b5b5090506119939190611997565b5090565b5b808211156119b0576000816000905550600101611998565b5090565b60006119c76119c2846121e8565b6121b7565b9050828152602081018484840111156119df57600080fd5b6119ea8482856122a8565b509392505050565b600082601f830112611a0357600080fd5b8135611a138482602086016119b4565b91505092915050565b60008060008060808587031215611a3257600080fd5b600085013567ffffffffffffffff811115611a4c57600080fd5b611a58878288016119f2565b945050602085013567ffffffffffffffff811115611a7557600080fd5b611a81878288016119f2565b935050604085013567ffffffffffffffff811115611a9e57600080fd5b611aaa878288016119f2565b925050606085013567ffffffffffffffff811115611ac757600080fd5b611ad3878288016119f2565b91505092959194509250565b600080600080600060a08688031215611af757600080fd5b600086013567ffffffffffffffff811115611b1157600080fd5b611b1d888289016119f2565b955050602086013567ffffffffffffffff811115611b3a57600080fd5b611b46888289016119f2565b945050604086013567ffffffffffffffff811115611b6357600080fd5b611b6f888289016119f2565b935050606086013567ffffffffffffffff811115611b8c57600080fd5b611b98888289016119f2565b925050608086013567ffffffffffffffff811115611bb557600080fd5b611bc1888289016119f2565b9150509295509295909350565b6000611bda8383611c57565b905092915050565b6000611bed8261223d565b611bf78185612260565b935083602082028501611c0985612218565b8060005b85811015611c455784840389528151611c268582611bce565b9450611c3183612253565b925060208a01995050600181019050611c0d565b50829750879550505050505092915050565b6000611c6282612248565b611c6c8185612271565b9350611c7c8185602086016122b7565b611c85816123f2565b840191505092915050565b6000611c9b82612248565b611ca58185612293565b9350611cb58185602086016122b7565b80840191505092915050565b60008154611cce816122ea565b611cd88186612293565b94506001821660008114611cf35760018114611d0457611d37565b60ff19831686528186019350611d37565b611d0d85612228565b60005b83811015611d2f57815481890152600182019150602081019050611d10565b838801955050505b50505092915050565b6000611d4d601b83612282565b91507f77686f6c6573616c65722061646472657373206d69736d6174636800000000006000830152602082019050919050565b6000611d8d602783612282565b91507f7374617475732073686f756c6420626520696e207472616e73697420746f207260008301527f657461696c6572000000000000000000000000000000000000000000000000006020830152604082019050919050565b6000611df3602983612282565b91507f7374617475732073686f756c6420626520696e207472616e73697420746f207760008301527f686f6c6573616c657200000000000000000000000000000000000000000000006020830152604082019050919050565b6000611e59602483612282565b91507f7374617475732073686f756c642062652077686f6c6573616c6572205265636560008301527f69766564000000000000000000000000000000000000000000000000000000006020830152604082019050919050565b6000611ebf601983612282565b91507f52656365697665722061646472657373206d69736d61746368000000000000006000830152602082019050919050565b6000611eff602d83612282565b91507f5472616e73616374696f6e20776974682074686973206361726420494420646f60008301527f6573206e6f7420657869737421000000000000000000000000000000000000006020830152604082019050919050565b6000611f65602d83612282565b91507f5472616e73616374696f6e20776974682074686973206361726420494420616c60008301527f72656164792065786973747321000000000000000000000000000000000000006020830152604082019050919050565b6000611fcb600d83612282565b91507f44617465206d69736d61746368000000000000000000000000000000000000006000830152602082019050919050565b600061200a8284611c90565b915081905092915050565b60006120218284611cc1565b915081905092915050565b600060c08201905081810360008301526120468189611be2565b9050818103602083015261205a8188611be2565b9050818103604083015261206e8187611be2565b905081810360608301526120828186611be2565b905081810360808301526120968185611be2565b905081810360a08301526120aa8184611be2565b9050979650505050505050565b600060208201905081810360008301526120d081611d40565b9050919050565b600060208201905081810360008301526120f081611d80565b9050919050565b6000602082019050818103600083015261211081611de6565b9050919050565b6000602082019050818103600083015261213081611e4c565b9050919050565b6000602082019050818103600083015261215081611eb2565b9050919050565b6000602082019050818103600083015261217081611ef2565b9050919050565b6000602082019050818103600083015261219081611f58565b9050919050565b600060208201905081810360008301526121b081611fbe565b9050919050565b6000604051905081810181811067ffffffffffffffff821117156121de576121dd6123c3565b5b8060405250919050565b600067ffffffffffffffff821115612203576122026123c3565b5b601f19601f8301169050602081019050919050565b6000819050602082019050919050565b60008190508160005260206000209050919050565b600081519050919050565b600081519050919050565b6000602082019050919050565b600082825260208201905092915050565b600082825260208201905092915050565b600082825260208201905092915050565b600081905092915050565b6000819050919050565b82818337600083830152505050565b60005b838110156122d55780820151818401526020810190506122ba565b838111156122e4576000848401525b50505050565b6000600282049050600182168061230257607f821691505b6020821081141561231657612315612394565b5b50919050565b60006123278261229e565b91507fffffffffffffffffffffffffffffffffffffffffffffffffffffffffffffffff82141561235a57612359612365565b5b600182019050919050565b7f4e487b7100000000000000000000000000000000000000000000000000000000600052601160045260246000fd5b7f4e487b7100000000000000000000000000000000000000000000000000000000600052602260045260246000fd5b7f4e487b7100000000000000000000000000000000000000000000000000000000600052604160045260246000fd5b6000601f19601f830116905091905056fea2646970667358221220a35abdb78bb5b41ac83e2f1e4b9ff4b816cba323ccd7edf27d4680195d4b088b64736f6c63430008000033",
  "linkReferences": {},
  "deployedLinkReferences": {}
}